:100000000C9435000C945D000C945D000C945D0024
:100010000C945D000C945D000C945D000C94DC0964
:100020000C945D000C94FA090C94F0090C94E60908
:100030000C945D000C945D000C945D000C945D00CC
:100040000C9492090C945D000C945D000C945D007E
:100050000C945D000C945D000C945D000C945D00AC
:100060000C945D000C945D000D0A11241FBECFEFAF
:10007000D8E0DEBFCDBF11E0A0E0B1E0E4E6FAE1F8
:1000800002C005900D92A83BB107D9F721E0A8EB7B
:10009000B1E001C01D92A43DB207E1F710E0C5E355
:1000A000D0E004C02197FE010E94F60BC433D107B3
:1000B000C9F70E94250A0C94300D0C940000A09101
:1000C000C301B091C401ED91FC9111970190F081B1
:1000D000E02D682FCD010994CF93C0E08091CF012E
:1000E000C81740F480E20E945F0080E20E945F0037
:1000F000CF5FF4CFCF9108952091CD013091CE0103
:100100002115310529F4019751F080E20C945F002C
:100110002130310521F022303105A9F308958AE01C
:10012000F5CF81E090E00E947C0083E090E0909326
:10013000CE018093CD0108953F924F925F926F92CE
:100140007F928F929F92AF92BF92CF92DF92EF9267
:10015000FF920F931F93CF93DF93CDB7DEB7A69790
:100160000FB6F894DEBF0FBECDBF8091C1008F7176
:100170008B7F8093C10086E08093C200FE017E9653
:1001800087E0DF011D928A95E9F782E08C8F83E09A
:100190008D8F84E08E8F8CE08CA389E03297DE0116
:1001A000539601900D928A95E1F789E0FE017396CE
:1001B000DE011A9601900D928A95E1F78B858131C7
:1001C00008F09EC09C85913108F09AC0891708F00C
:1001D00097C089E0FE017396DE01119601900D92A1
:1001E0008A95E1F78E010E5F1F4FFE013496FEA344
:1001F000EDA3812C912C54018394412CA8E45A2E18
:10020000A8EE6A2E77247394C12CB2ECDB2EEE2478
:10021000E394F12CD8013D908D01A5019401032CAC
:1002200004C0220F331F441F551F0A94D2F7211513
:1002300031054105510509F45DC0C301B2010E94B9
:10024000C90BCA01B9016F5F7F4F8F4F9F4F9695C2
:10025000879577956795611571058105910509F475
:1002600049C0660F771F881F991FA70196010E943A
:10027000C90B2F5F3F4F4F4F5F4F569547953795AF
:1002800027952115310541055105A1F1215031096D
:100290003F70932F9F708091C500807F892B809342
:1002A000C5002093C400B3E03B122CC08091C00075
:1002B00082608093C0008091C100806188608093DB
:1002C000C10081E0A6960FB6F894DEBF0FBECDBF89
:1002D000DF91CF911F910F91FF90EF90DF90CF9022
:1002E000BF90AF909F908F907F906F905F904F9056
:1002F0003F900895EDA1FEA10E171F0709F08ACFC8
:1003000080E0E0CFF4E03F12FBCF8091C0008D7F12
:10031000D0CF4F925F926F927F928F929F92AF92C7
:10032000BF92CF92DF92EF92FF920F931F93CF93E2
:10033000DF93C82E82E090E00E947C008091CD0186
:100340009091CE01009729F08D7F019711F40E94C2
:100350006C00C091C301D091C401D12CF12CE12CCF
:1003600013E084E6882E912CA12CB12C9AE0492E22
:10037000512C612C712CC701B601A50194010E947A
:10038000C90B022F60E3620FE881F9810190F081CF
:10039000E02DCE010995A02FB0E0A50194010E94A7
:1003A000EB0BC61AD70AE80AF90AC501B401A30182
:1003B00092010E94C90B49015A011150E1F682E0F5
:1003C00090E09093CE018093CD01DF91CF911F916A
:1003D0000F91FF90EF90DF90CF90BF90AF909F90E4
:1003E0008F907F906F905F904F900895E9EBF0E0D1
:1003F00080818C7F808388E48093B800ECEBF0E010
:100400008081846080830895089583309105D0F0C1
:100410000297B0E0A0E0BC01CD0124E0660F771F99
:10042000881F991F2A95D1F724E130E040E050E081
:100430000E94C90B2115310529F0C9010E94040A47
:100440000197E1F70895FC018081FB018083089505
:10045000FB012081FC012083089580688093BC000B
:1004600008958091B9008695869586958A3071F0B9
:100470008F3161F0882351F08091BC008F7D8061C5
:100480000E942D028091BC0084FDFCCF08958091D4
:10049000BC0087FD04C088E790E00C940502089535
:1004A0008091BC0080628F7E0E942D020C944702D6
:1004B0008093BB008091BC008F7C0E942D020C9425
:1004C0004702FF920F931F93CF93DF931F92CDB7F5
:1004D000DEB7F62E8A010E9450028F2D880F0E94EF
:1004E00058028091B9008695869586958330B9F437
:1004F000D801ED91FC910190F081E02DBE016F5F7C
:100500007F4FC80109958823A9F089810E9458026C
:100510008091B900869586958695853049F310E0DF
:100520000E943102812F0F90DF91CF911F910F9187
:10053000FF90089511E0F4CFEF92FF920F931F9375
:10054000CF93DF931F92CDB7DEB77C018B01D7012C
:10055000ED91FC910190F081E02DBE016F5F7F4F26
:10056000C7010995882399F0D801ED91FC9101907C
:10057000F081E02D6981C80109958111E8CF0F90C4
:10058000DF91CF911F910F91FF90EF90089581E03F
:10059000F6CFCF93DF931F92CDB7DEB76983DC012F
:1005A0001296ED91FC91CE01019609950F90DF9185
:1005B000CF910895DC011296ED91FC91CB01099445
:1005C0000F931F93CF93DF93EC018D81882351F01C
:1005D0009E81DB019C931C821D82DF91CF911F9134
:1005E0000F9108958B018A819B81BE016A5F7F4FC5
:1005F000DC01ED91FC910190F081E02D09958823BB
:1006000061F39E81F801908391E09C83E6CF0F9384
:100610001F93CF93DF931F92CDB7DEB78C01BE013E
:100620006F5F7F4FC8010E94E002882371F08981CB
:100630008032A9F38D3099F38950833080F3F8012B
:100640008481882311F081E085830F90DF91CF9121
:100650001F910F910895CF93DF931F92CDB7DEB70F
:10066000FC0169838681811119C064817581828151
:1006700093816817790769F481E086830780F085A4
:10068000E02DCE010196099581E00F90DF91CF9189
:100690000895CB01019695838483F0CF80E0F5CF58
:1006A000CF92DF92EF92FF920F931F93CF93DF933E
:1006B0001F92CDB7DEB76C018B01F12CBE016F5FCD
:1006C0007F4FC8010E94E002E82E8823A1F06981D3
:1006D000603259F06D3049F087EF860F833028F093
:1006E000C6010E942B03FE2CE9CFF80184818823E8
:1006F00011F081E085838F2D0F90DF91CF911F91B5
:100700000F91FF90EF90DF90CF900895FC01CB0107
:100710002681211115C06481758122813381621780
:10072000730741F421E026830780F085E02D0995C9
:1007300081E008959B012F5F3F4F35832483F4CFE1
:1007400080E00895FC0147815085218532858481B0
:10075000811121C08281938121153105E1F0662745
:100760007727621B730B64177507A8F0841795072A
:1007700090F0B901640F751F61507109681779070E
:1007800050F09C012F5F3F4F241B350B4115510545
:1007900011F021503109BA01C9010895FC011582F7
:1007A00014821382128221E0268361157105E9F01B
:1007B00022273327261B370B24173507B0F0558324
:1007C00044839B01240F351F215031093383228339
:1007D0001682418752876387748783E292E090870D
:1007E000878381E02115394008F080E00895CF9398
:1007F000DF93CDB7DEB72F970FB6F894DEBF0FBEED
:10080000CDBFAB01BC0188E291E09F878E871B863C
:100810001A861D861C8684E391E09A838983CE0123
:1008200001960E94CE03882339F0BE016F5F7F4F8F
:10083000CE010E960E949C022F960FB6F894DEBF52
:100840000FBECDBFDF91CF910895FC0115821482B8
:100850001382128221E0268361157105E9F02227B7
:100860003327261B370B24173507B0F055834483F5
:100870009B01240F351F21503109338322831682B7
:10088000418752876387748788E292E090878783E5
:1008900081E02115394008F080E00895CF93DF937F
:1008A000CDB7DEB72D970FB6F894DEBF0FBECDBF24
:1008B000AB01BC011B861A861D861C868AE391E06B
:1008C0009A838983CE0101960E942504882341F0F2
:1008D0006091C3017091C401CE0101960E949C02F7
:1008E0002D960FB6F894DEBF0FBECDBFDF91CF912E
:1008F0000895CF92DF92EF92FF926B017C0190E01E
:1009000080E00E947C008091CD019091CE01009703
:1009100029F08D7F019711F40E946C00C701B60188
:100920000E944E041092CE011092CD01FF90EF90E4
:10093000DF90CF900895CF92DF92EF92FF920F93C6
:100940001F93CF93DF93CDB7DEB7A6970FB6F8947A
:10095000DEBF0FBECDBF6C018B011B861A861D86C4
:100960001C8684E391E09A838983188E1F8A1A8EED
:10097000198E8AE391E09F878E87AE014E5D5F4FAF
:1009800065E070E0CE0101960E94CE038EE291E018
:100990009C8F8B8F1E8F0D8F1F8E18A2CE014B96B2
:1009A0000E940703BE01655E7F4FCE0101960E9443
:1009B0005003F82E882391F1CE0103960E94A203E2
:1009C000AB01BC01CE010E960E94250410E000E0B0
:1009D0008AE0E82EBE01655E7F4FCE010E960E9432
:1009E00086038823C1F08B8D80538A3038F50A390D
:1009F00099E1190718F5E09E9001E19E300D112450
:100A0000082F10E0C8018095909582179307B0F0E9
:100A1000020F131FDFCFF601118300838F2DA696DF
:100A20000FB6F894DEBF0FBECDBFDF91CF911F91FF
:100A30000F91FF90EF90DF90CF900895F12CEECFC3
:100A40000F931F93CF93DF9300D0CDB7DEB78C0108
:100A5000CE0101960E949B04882341F029813A81AE
:100A60002F3F310509F048F4F80120830F900F90D3
:100A7000DF91CF911F910F91089580E0F7CFCF9232
:100A8000DF92EF92FF92CF93DF93CDB7DEB76A97F5
:100A90000FB6F894DEBF0FBECDBF6B017C01BA016B
:100AA000A9011B861A861D861C868AE391E09A831B
:100AB0008983188E1F8A1A8E198E84E391E09F878E
:100AC0008E87CE0101960E942504882379F0B70114
:100AD000A601CE010E960E94CE03882339F0BE01F6
:100AE000625F7F4FCE0101960E949C026A960FB60C
:100AF000F894DEBF0FBECDBFDF91CF91FF90EF9096
:100B0000DF90CF900895EF92FF920F931F93CF93B2
:100B1000DF93CDB7DEB72E970FB6F894DEBF0FBECA
:100B2000CDBF7C011B861A861D861C868AE391E058
:100B30009A838983A70180E099E0BC016E197F093F
:100B4000CE0101960E94250410E000E0BE01625F24
:100B50007F4FCE0101960E948603882331F08E8557
:100B6000882319F00F5F1F4FF1CFB701C8012E96F0
:100B70000FB6F894DEBF0FBECDBFDF91CF911F91AE
:100B80000F91FF90EF900895CF92DF92EF92FF9236
:100B90000E9483056B017C0181E090E00E947C0053
:100BA0008091CD019091CE01049710F40E946C00C9
:100BB000C701B6010E944E048AE00E945F0083E0F4
:100BC00090E09093CE018093CD01FF90EF90DF9065
:100BD000CF900895CF93DF93EC01688179818A816A
:100BE0009B810E9479048E819F81892B61F088E42A
:100BF00091E00E9483050E9479046C817D818E8141
:100C00009F810E947904DF91CF910C949100CF9342
:100C1000DF93FC01C081D181209751F070E060E04A
:100C2000888199810E94EA050A80DB81C02DF4CF7A
:100C3000DF91CF910895CF93DF93EC018AE491E0A7
:100C40000E9483050E947904688179818A819B8151
:100C50000E9479040E9491008091CF01823319F0A3
:100C60008F5F8093CF01E885F985309719F08A85E9
:100C70009B8509958091CF01882319F0815080933D
:100C8000CF018CE491E0DF91CF910C94C4058F9259
:100C90009F92AF92BF92CF92DF92EF92FF920F930B
:100CA0001F93CF93DF93CDB7DEB76C970FB6F89451
:100CB000DEBF0FBECDBF8C017B01FB018080918028
:100CC000A280B380FC014081518162817381188EC2
:100CD0001F8A1A8E198E8AE391E09F878E871B8662
:100CE0001A861D861C869A838983CE010E960E94E1
:100CF0002504882311F1B501A401CE0101960E94BB
:100D000025048823D1F0DD24D394BE01645E7F4F97
:100D1000CE010E960E948603C82EBE01655E7F4FEF
:100D2000CE0101960E9486038D25CC20C9F0811149
:100D300004C09C8D8B8D981741F36C960FB6F89478
:100D4000DEBF0FBECDBFDF91CF911F910F91FF90FE
:100D5000EF90DF90CF90BF90AF909F908F900895CD
:100D6000882359F3F70115830483E7CFEF92FF92AD
:100D70000F931F93CF93DF9300D000D000D0CDB757
:100D8000DEB77B0129833A834B835C831E821D82FD
:100D9000FC01008111810115110561F0BE016F5F39
:100DA0007F4FF801808191810E944706F8010281FE
:100DB0001381F1CFED81FE8180E0309739F08CE036
:100DC000D70101900D928A95E1F781E026960FB642
:100DD000F894DEBF0FBECDBFDF91CF911F910F9171
:100DE000FF90EF900895FC0180819091C00095FFE5
:100DF000FCCF8093C6008091C00086FFFCCF80911D
:100E0000C00080648093C00081E00895FC0180915F
:100E1000C00087FFFCCF9091C00096959695977083
:100E20008091C60080839111F2CF81E00895FB018B
:100E3000108281E0089580E00895CB016091C101A6
:100E40007091C2010C942005862F0E94890181E0D7
:100E50000895CF93DF9300D000D0CDB7DEB782E204
:100E600091E09A8389836091C1017091C201CE01A2
:100E700003960E942005882379F00E94F601AE01B6
:100E80004F5F5F4F6B81CE0104960E94610280919B
:100E9000BC008B7F8093BC000F900F900F900F9041
:100EA000DF91CF910895EF92FF920F931F93CF930D
:100EB000DF9300D01F92CDB7DEB76091C101709172
:100EC000C201CE0103960E942005882309F441C087
:100ED0006091C1017091C201CE0101960E949B04F4
:100EE0008823B9F10E94F601E980FA80E114F10447
:100EF00049F11B810E945002812F880F81600E945E
:100F000058028091B9008695869586958830C1F4FF
:100F100010E000E00F5F1F4F8091BC0091E00E15C4
:100F20001F0508F090E090FB86F90E942D020E94B8
:100F300047028091BB000E948901E016F10651F73B
:100F40000E9431028091BC008B7F8093BC000E9484
:100F500091000F900F900F90DF91CF911F910F9103
:100F6000FF90EF9008951F93CF93DF9300D01F92CF
:100F7000CDB7DEB78CE191E09A8389830E94F601B8
:100F800018E0AE014F5F5F4F612FCE0103960E94C4
:100F90006102882319F0812F0E9489011F5F183791
:100FA00081F70E9491008091BC008B7F8093BC00F0
:100FB0000F900F900F90DF91CF911F9108950F9395
:100FC0001F93CF93DF93EC018B01CB010E940B0C9D
:100FD000009781F0998388831B830A8368817981D4
:100FE0008A819B810E94F70381E0DF91CF911F915D
:100FF0000F91089580E0F9CFCF93DF93EC018A81C0
:101000009B810097B1F09195819591092881398153
:101010008217930770F0688179818A819B810E9491
:10102000F703888199810E94A70C198218821B827C
:101030001A82DF91CF910895CF92DF92EF92FF92C3
:101040000F931F93CF93DF9300D000D0CDB7DEB7BF
:101050008C0184E0C82ED12CD801ED91FC91309701
:1010600071F0E280F380DC82CB82FA83E983CE01E7
:1010700001960E94FC07F801F182E082EDCF0F900B
:101080000F900F900F90DF91CF911F910F91FF90D4
:10109000EF90DF90CF900895AF92BF92CF92DF9202
:1010A000EF92FF920F931F93CF93DF93CDB7DEB7ED
:1010B00064970FB6F894DEBF0FBECDBF5C01C98642
:1010C000DA86EB86FC860D871E872F87388B498B47
:1010D0005A8B6B8B7C8B1E821D8218861F826CE064
:1010E00070E0CE0105960E94DF07182F8823F1F0EB
:1010F0009E01275F3F4F4CE050E06D817E818F81E4
:1011000098850E943F05ED80FE801A8219821C821C
:101110001B8264E070E0CE0101960E94DF07182F69
:10112000811116C0CE0105960E94FC07812F64969E
:101130000FB6F894DEBF0FBECDBFDF91CF911F91E8
:101140000F91FF90EF90DF90CF90BF90AF900895F8
:10115000E981FA81F182E082D5018D919C9111970C
:10116000892B11F4ED93FC93D50112968D919C91EE
:10117000009729F0DC011396FC93EE931297D501AA
:101180001396FC93EE931297D1CF0F931F93CF93A7
:10119000DF9300D000D0CDB7DEB78C018CE090E0BB
:1011A0009C838B831A830983C8010E94FC07C801B2
:1011B00004960E94FC07CE0101960E94FC070F9046
:1011C0000F900F900F90DF91CF911F910F91089585
:1011D0000C94C5080F931F93CF93DF938C01FC01F0
:1011E000C081D181209741F0888199810E94C508F2
:1011F0000A80DB81C02DF6CFC801DF91CF911F910E
:101200000F910C941C080C94EA084F925F926F9215
:101210007F928F929F92AF92BF92CF92DF92EF9286
:10122000FF920F931F93CF93DF93CDB7DEB728972D
:101230000FB6F894DEBF0FBECDBF7C01CB015A01C3
:1012400069011A8219821C821B821E821D821886E5
:101250001F820E9483052B013C01C5010E9483056A
:101260004B015C016114710409F5F70111821082D0
:10127000138212821582148217821682C701289661
:101280000FB6F894DEBF0FBECDBFDF91CF911F9197
:101290000F91FF90EF90DF90CF90BF90AF909F9015
:1012A0008F907F906F905F904F900895B301CE0123
:1012B00001960E94DF078823C1F269817A818B81C0
:1012C0009C81A30192010E943F05A114B10429F45D
:1012D000CE0101960E94FC07C8CFB501CE0105964C
:1012E0000E94DF078823A1F36D817E818F8198851D
:1012F000A50194010E943F0549815A816B817C813F
:101300008D819E81AF81B885F701408351836283CF
:10131000738384839583A683B783D186C08613871E
:101320000287ACCF1F920F920FB60F9211242F930A
:101330003F938F939F93AF93BF938091BD01909103
:10134000BE01A091BF01B091C0013091BC0123E06A
:10135000230F2D3758F50196A11DB11D2093BC0117
:101360008093BD019093BE01A093BF01B093C001D3
:101370008091B8019091B901A091BA01B091BB01DF
:101380000196A11DB11D8093B8019093B901A0935E
:10139000BA01B093BB01BF91AF919F918F913F91E3
:1013A0002F910F900FBE0F901F90189526E8230FD6
:1013B0000296A11DB11DD2CF1F920F920FB60F92B0
:1013C00011240F900FBE0F901F9018951F920F922F
:1013D0000FB60F9211240F900FBE0F901F9018950B
:1013E0001F920F920FB60F9211240F900FBE0F9005
:1013F0001F9018951F920F920FB60F9211240F9005
:101400000FBE0F901F901895000000000000000014
:10141000000000000000000008958EE491E00E94AA
:10142000830580E591E00E948305E1ECF1E086E42C
:1014300091E09583848380E491E09187808783E0C5
:1014400090E09587848716860895CF93DF93CDB774
:10145000DEB7C856D1090FB6F894DEBF0FBECDBFB8
:10146000789484B5826084BD84B5816084BD85B57F
:10147000826085BD85B5816085BD80916E0081608B
:1014800080936E0010928100809181008260809331
:101490008100809181008160809381008091800033
:1014A0008160809380008091B10084608093B1005E
:1014B0008091B00081608093B00080917A00846058
:1014C00080937A0080917A00826080937A00809184
:1014D0007A00816080937A0080917A00806880939E
:1014E0007A001092C1000E949C00882331F086E0AF
:1014F00097E09093C8018093C7010E949C008823C5
:1015000031F083EF96E09093CC018093CB0185EC92
:1015100091E09093C2018093C10189EC91E0909396
:10152000C4018093C30182E591E00E94C405A7969F
:101530001FAE1EAEA797A9961FAE1EAEA9978E012D
:101540000B591F4F27E036E04EE551E06CE671E0A5
:10155000CE018A5B9F4F0E9405092796CFAC279743
:101560002896DFAC28972996EFAC29972A96FFACEE
:101570002A972B960FAD2B972C961FAD2C972D9657
:101580002FAD2D972E963FAD2E972F964FAD2F97BF
:1015900060965FAD609761966FAD619762967FAD23
:1015A0006297CE018B599F4F0E944C08882351F1BE
:1015B0008E010B591F4F23E039E04EE651E063E7FF
:1015C00071E0CE01CA960E940509CAACDBACECAC56
:1015D000FDAC0EAD1FAD21962FAD219722963FADEC
:1015E000229723964FAD239724965FAD2497259697
:1015F0006FAD259726967FAD2697CE018B599F4FCD
:101600000E944C0882E1E6E0F1E09E012F5F3F4F2F
:101610004901D90101900D928A95E1F759013E01E6
:1016200033E1630E711CF5012281338144815581C0
:101630006081718110E000E0CE018E960E94050964
:10164000CEA4DFA4E8A8F9A80AA91BA92CA93DA942
:101650004EA95FA968AD79ADCE018B599F4F0E940D
:101660004C08F6E0AF0EB11CA614B704E1F68CE608
:1016700091E00E9483059B01AC011A8219821C82B1
:101680001B821E821D8218861F82B401CE018B59D7
:101690009F4F0E94B606882319F0C4010E941B06C2
:1016A00064961FAE1EAE649766961FAE1EAE66971A
:1016B00068961FAE1EAE68976A961FAE1EAE6A97FA
:1016C0000EE211E094E3A92E91E0B92EA7968EAD1B
:1016D0009FADA797892B09F446C080E2482E512C74
:1016E0001BA61AA61DA61CA6BAA2A9A2B201A401F5
:1016F000CE0181960E94CE038091C1019091C201DA
:10170000A0961FAF0EAFA097A2969FAF8EAFA297E5
:10171000A3961FAEA397A4961FAEA497CE01825A9C
:101720009F4F0E940703BE01625A7F4FCE018196F0
:101730000E945003882351F2CE0183960E94A20397
:10174000AC019B01BE016E5A7F4FCE018B599F4F5A
:101750000E94B606882309F4B9CFCE018E5A9F4F56
:101760000E941B06B3CFCE018B599F4F0E94EA08FF
:10177000CE018B599F4F0E941C0885E791E00E9483
:10178000C40500E010E001151105E9F30E94000016
:10179000FACFA1E21A2EAA1BBB1BFD010DC0AA1F86
:1017A000BB1FEE1FFF1FA217B307E407F50720F0CA
:1017B000A21BB30BE40BF50B661F771F881F991F45
:1017C0001A9469F760957095809590959B01AC018E
:1017D000BD01CF0108950E94FC0BA59F900DB49F01
:1017E000900DA49F800D911D11240895EE0FFF1FF1
:1017F0000590F491E02D0994A29FB001B39FC00120
:10180000A39F700D811D1124911DB29F700D811D2C
:101810001124911D08950F931F93CF93DF9382306E
:10182000910510F482E090E0E091D201F091D301B3
:1018300030E020E0B0E0A0E0309799F421153105C8
:1018400009F44AC0281B390B24303105D8F58A81A8
:101850009B816115710589F1FB0193838283FE01F0
:1018600011C0408151810281138148175907E0F06E
:101870004817590799F4109761F012960C93129734
:1018800013961C933296CF01DF91CF911F910F9148
:1018900008950093D2011093D301F4CF211531059F
:1018A00051F04217530738F0A901DB019A01BD013D
:1018B000DF01F801C1CFEF01F9CF9093D3018093FD
:1018C000D201CDCFFE01E20FF31F819391932250FD
:1018D000310939832883D7CF2091D0013091D101AC
:1018E000232B41F420910201309103013093D10167
:1018F0002093D00120910001309101012115310583
:1019000041F42DB73EB74091040150910501241BCD
:10191000350BE091D001F091D101E217F307A0F46B
:101920002E1B3F0B2817390778F0AC014E5F5F4F35
:101930002417350748F04E0F5F1F5093D101409395
:10194000D001819391939FCFF0E0E0E09CCFCF93C3
:10195000DF930097E9F0FC01329713821282A09185
:10196000D201B091D301ED0130E020E01097A1F455
:1019700020813181820F931F2091D0013091D101BC
:101980002817390709F061C0F093D101E093D00125
:10199000DF91CF910895EA01CE17DF07E8F54A817C
:1019A0005B819E0141155105B1F7E901FB83EA8393
:1019B00049915991C40FD51FEC17FD0761F480813F
:1019C00091810296840F951FE90199838883828112
:1019D00093819B838A83F0E0E0E012968D919C9145
:1019E00013970097B9F52D913C911197CD0102966F
:1019F000820F931F2091D0013091D1012817390710
:101A000039F6309751F51092D3011092D201B0936C
:101A1000D101A093D001BCCFD383C2834081518137
:101A2000840F951FC817D90761F44E5F5F4F8881F7
:101A30009981480F591F518340838A819B819383E9
:101A400082832115310509F0B0CFF093D301E093E3
:101A5000D2019ECFFD01DC01C0CF13821282D7CF0D
:041A6000F894FFCF28
:101A64000000D40180006A01B3077A017F015307A3
:101A740081019C0129079E01000000001B07000052
:101A840000001D0700000000170700000000E0022E
:101A9400000000002B03000000008603000000008B
:101AA400C90200000000DA022D00280029005900B4
:101AB4004E0049324320636F6E736F6C65004C694E
:101AC400737420636F6D6D616E6473003F004578BD
:101AD4006974005E00446F6E65005363616E00724A
:101AE4000052656164203C44657669636549643EDF
:101AF400203C4E756D42797465733E0077005772D1
:101B0400697465203C44657669636549643E203C9C
:081B140042797465732B3E0059
:00000001FF
