:100000000C9435000C945D000C945D000C945D0024
:100010000C945D000C945D000C945D000C94210A1E
:100020000C945D000C943F0A0C94350A0C942B0A36
:100030000C945D000C945D000C945D000C945D00CC
:100040000C94D7090C945D000C945D000C945D0039
:100050000C945D000C945D000C945D000C945D00AC
:100060000C945D000C945D00520A11241FBECFEF6A
:10007000D8E0DEBFCDBF11E0A0E0B1E0E4EAFBE1F3
:1000800002C005900D92A637B107D9F721E0A6E787
:10009000B1E001C01D92A239B207E1F710E0C5E35B
:1000A000D0E004C02197FE010E94960CC433D10712
:1000B000C9F70E946A0A0C94D00D0C940000A0911C
:1000C0008101B0918201ED91FC9111970190F08135
:1000D000E02D682FCD010994CF93C0E080918D0170
:1000E000C81740F480E20E945F0080E20E945F0037
:1000F000CF5FF4CFCF91089520918B0130918C0187
:100100002115310529F4019751F080E20C945F002C
:100110002130310521F022303105A9F308958AE01C
:10012000F5CF81E090E00E947C0083E090E0909326
:100130008C0180938B0108953F924F925F926F9252
:100140007F928F929F92AF92BF92CF92DF92EF9267
:10015000FF920F931F93CF93DF93CDB7DEB7A69790
:100160000FB6F894DEBF0FBECDBF8091C1008F7176
:100170008B7F8093C10086E08093C200FE017E9653
:1001800087E0DF011D928A95E9F782E08C8F83E09A
:100190008D8F84E08E8F8CE08CA389E03297DE0116
:1001A000539601900D928A95E1F789E0FE017396CE
:1001B000DE011A9601900D928A95E1F78B858131C7
:1001C00008F09EC09C85913108F09AC0891708F00C
:1001D00097C089E0FE017396DE01119601900D92A1
:1001E0008A95E1F78E010E5F1F4FFE013496FEA344
:1001F000EDA3812C912C54018394412CA8E45A2E18
:10020000A8EE6A2E77247394C12CB2ECDB2EEE2478
:10021000E394F12CD8013D908D01A5019401032CAC
:1002200004C0220F331F441F551F0A94D2F7211513
:1002300031054105510509F45DC0C301B2010E94B9
:10024000690CCA01B9016F5F7F4F8F4F9F4F969521
:10025000879577956795611571058105910509F475
:1002600049C0660F771F881F991FA70196010E943A
:10027000690C2F5F3F4F4F4F5F4F5695479537950E
:1002800027952115310541055105A1F1215031096D
:100290003F70932F9F708091C500807F892B809342
:1002A000C5002093C400B3E03B122CC08091C00075
:1002B00082608093C0008091C100806188608093DB
:1002C000C10081E0A6960FB6F894DEBF0FBECDBF89
:1002D000DF91CF911F910F91FF90EF90DF90CF9022
:1002E000BF90AF909F908F907F906F905F904F9056
:1002F0003F900895EDA1FEA10E171F0709F08ACFC8
:1003000080E0E0CFF4E03F12FBCF8091C0008D7F12
:10031000D0CF4F925F926F927F928F929F92AF92C7
:10032000BF92CF92DF92EF92FF920F931F93CF93E2
:10033000DF93C82E82E090E00E947C0080918B01C8
:1003400090918C01009729F08D7F019711F40E9404
:100350006C00C0918101D0918201D12CF12CE12C53
:1003600013E084E6882E912CA12CB12C9AE0492E22
:10037000512C612C712CC701B601A50194010E947A
:10038000690C022F60E3620FE881F9810190F0812E
:10039000E02DCE010995A02FB0E0A50194010E94A7
:1003A0008B0CC61AD70AE80AF90AC501B401A301E1
:1003B00092010E94690C49015A011150E1F682E054
:1003C00090E090938C0180938B01DF91CF911F91EE
:1003D0000F91FF90EF90DF90CF90BF90AF909F90E4
:1003E0008F907F906F905F904F900895E9EBF0E0D1
:1003F00080818C7F808388E48093B800ECEBF0E010
:100400008081846080830895089583309105D0F0C1
:100410000297B0E0A0E0BC01CD0124E0660F771F99
:10042000881F991F2A95D1F724E130E040E050E081
:100430000E94690C2115310529F0C9010E94490A61
:100440000197E1F70895FC018081FB018083089505
:10045000FB012081FC012083089580688093BC000B
:1004600008958091B9008695869586958A3071F0B9
:100470008F3161F0882351F08091BC008F7D8061C5
:100480000E942D028091BC0084FDFCCF08958091D4
:10049000BC0087FD04C088E790E00C940502089535
:1004A0008091BC0080628F7E0E942D020C944702D6
:1004B0008093BB008091BC008F7C0E942D020C9425
:1004C0004702CF92DF92EF92FF920F931F93CF9349
:1004D000DF931F92CDB7DEB7162F6A0179010E9414
:1004E0005002812F880F0E9458028091B900869592
:1004F000869586958330F9F410E000E00C151D0513
:1005000041F1D701ED91FC910190F081E02DBE0108
:100510006F5F7F4FC7010995882369F089810E9429
:1005200058028091B900869586958695853019F494
:100530000F5F1F4FE3CF10E00E943102812F0F9019
:10054000DF91CF911F910F91FF90EF90DF90CF90AF
:10055000089511E0F1CFEF92FF920F931F93CF9385
:10056000DF931F92CDB7DEB77C018B01D701ED91F0
:10057000FC910190F081E02DBE016F5F7F4FC701BC
:100580000995882399F0D801ED91FC910190F081B3
:10059000E02D6981C80109958111E8CF0F90DF91A5
:1005A000CF911F910F91FF90EF90089581E0F6CFCA
:1005B000CF93DF931F92CDB7DEB76983DC0112962C
:1005C000ED91FC91CE01019609950F90DF91CF91AD
:1005D0000895DC011296ED91FC91CB0109940F93E3
:1005E0001F93CF93DF93EC018D81882351F09E817F
:1005F000DB019C931C821D82DF91CF911F910F9193
:1006000008958B018A819B81BE016A5F7F4FDC0167
:10061000ED91FC910190F081E02D0995882361F323
:100620009E81F801908391E09C83E6CF0F931F9306
:10063000CF93DF931F92CDB7DEB78C01BE016F5F02
:100640007F4FC8010E94EF02882371F089818032B8
:10065000A9F38D3099F38950833080F3F8018481B8
:10066000882311F081E085830F90DF91CF911F9156
:100670000F910895CF93DF931F92CDB7DEB7FC01A2
:1006800069838681811119C064817581828193811A
:100690006817790769F481E086830780F085E02D8B
:1006A000CE010196099581E00F90DF91CF910895D9
:1006B000CB01019695838483F0CF80E0F5CFCF9274
:1006C000DF92EF92FF920F931F93CF93DF931F92CE
:1006D000CDB7DEB76C018B01F12CBE016F5F7F4F90
:1006E000C8010E94EF02E82E8823A1F069816032E0
:1006F00059F06D3049F087EF860F833028F0C6013E
:100700000E943A03FE2CE9CFF8018481882311F07E
:1007100081E085838F2D0F90DF91CF911F910F91F5
:10072000FF90EF90DF90CF900895FC01CB012681E0
:10073000211115C06481758122813381621773078D
:1007400041F421E026830780F085E02D099581E0C2
:1007500008959B012F5F3F4F35832483F4CF80E0C2
:100760000895FC014781508521853285848181115E
:1007700021C08281938121153105E1F06627772719
:10078000621B730B64177507A8F08417950790F028
:10079000B901640F751F615071096817790750F02E
:1007A0009C012F5F3F4F241B350B4115510511F064
:1007B00021503109BA01C9010895FC011582148242
:1007C0001382128221E0268361157105E9F0222748
:1007D0003327261B370B24173507B0F05583448386
:1007E0009B01240F351F2150310933832283168248
:1007F000418752876387748783E292E0908787837B
:1008000081E02115394008F080E00895CF93DF930F
:10081000CDB7DEB72F970FB6F894DEBF0FBECDBFB2
:10082000AB01BC0180E191E09F878E871B861A8611
:100830001D861C868CE191E09A838983CE01019606
:100840000E94DD03882339F0BE016F5F7F4FCE0128
:100850000E960E94AB022F960FB6F894DEBF0FBE25
:10086000CDBFDF91CF910895FC01158214821382D0
:10087000128221E0268361157105E9F022273327D2
:10088000261B370B24173507B0F0558344839B0193
:10089000240F351F2150310933832283168241876B
:1008A00052876387748788E292E09087878381E02C
:1008B0002115394008F080E00895CF93DF93CDB73C
:1008C000DEB72D970FB6F894DEBF0FBECDBFAB01DC
:1008D000BC011B861A861D861C8682E291E09A83E3
:1008E0008983CE0101960E943404882341F06091EF
:1008F000810170918201CE0101960E94AB022D967A
:100900000FB6F894DEBF0FBECDBFDF91CF91089533
:10091000CF92DF92EF92FF926B017C0190E080E03A
:100920000E947C0080918B0190918C01009729F0AE
:100930008D7F019711F40E946C00C701B6010E94DF
:100940005D0410928C0110928B01FF90EF90DF906C
:10095000CF900895CF92DF92EF92FF920F931F9363
:10096000CF93DF93CDB7DEB7A6970FB6F894DEBF6F
:100970000FBECDBF6C018B011B861A861D861C869F
:100980008CE191E09A838983188E1F8A1A8E198EC2
:1009900082E291E09F878E87AE014E5D5F4F65E0FA
:1009A00070E0CE0101960E94DD0386E191E09C8F0C
:1009B0008B8F1E8F0D8F1F8E18A2CE014B960E941B
:1009C0001603BE01655E7F4FCE0101960E945F0354
:1009D000F82E882391F1CE0103960E94B103AB015A
:1009E000BC01CE010E960E94340410E000E08AE0C3
:1009F000E82EBE01655E7F4FCE010E960E949503E4
:100A00008823C1F08B8D80538A3038F50A3999E1FB
:100A1000190718F5E09E9001E19E300D1124082F72
:100A200010E0C8018095909582179307B0F0020FEF
:100A3000131FDFCFF601118300838F2DA6960FB60B
:100A4000F894DEBF0FBECDBFDF91CF911F910F9104
:100A5000FF90EF90DF90CF900895F12CEECF0F93A1
:100A60001F93CF93DF9300D0CDB7DEB78C01CE01BB
:100A700001960E94AA04882341F029813A812F3FE0
:100A8000310509F048F4F80120830F900F90DF91B1
:100A9000CF911F910F91089580E0F7CFCF92DF9211
:100AA000EF92FF92CF93DF93CDB7DEB76A970FB681
:100AB000F894DEBF0FBECDBF6B017C01BA01A90166
:100AC0001B861A861D861C8682E291E09A838983A2
:100AD000188E1F8A1A8E198E8CE191E09F878E875F
:100AE000CE0101960E943404882379F0B701A60153
:100AF000CE010E960E94DD03882339F0BE01625FAD
:100B00007F4FCE0101960E94AB026A960FB6F89411
:100B1000DEBF0FBECDBFDF91CF91FF90EF90DF9092
:100B2000CF900895EF92FF920F931F93CF93DF938F
:100B3000CDB7DEB72E970FB6F894DEBF0FBECDBF90
:100B40007C011B861A861D861C8682E291E09A83B0
:100B50008983A70180E099E0BC016E197F09CE016D
:100B600001960E94340410E000E0BE01625F7F4FF6
:100B7000CE0101960E949503882331F08E8588234B
:100B800019F00F5F1F4FF1CFB701C8012E960FB6B6
:100B9000F894DEBF0FBECDBFDF91CF911F910F91B3
:100BA000FF90EF900895CF92DF92EF92FF920E9414
:100BB00092056B017C0181E090E00E947C008091B5
:100BC0008B0190918C01049710F40E946C00C70176
:100BD000B6010E945D048AE00E945F0083E090E01D
:100BE00090938C0180938B01FF90EF90DF90CF90DA
:100BF0000895CF93DF93EC01688179818A819B818D
:100C00000E9488048E819F81892B61F080E391E0AE
:100C10000E9492050E9488046C817D818E819F8153
:100C20000E948804DF91CF910C949100CF93DF93C1
:100C3000FB01C081D181209751F070E060E0888194
:100C400099810E94F9050A80DB81C02DF4CFDF91E4
:100C5000CF910895CF93DF93EC0182E391E00E945E
:100C600092050E948804688179818A819B810E9413
:100C700088040E94910080918D01823319F08F5F6A
:100C800080938D01E885F985309729F06A857B8509
:100C900090E080E0099580918D01882319F08150C2
:100CA00080938D0184E391E0DF91CF910C94D30583
:100CB0008F929F92AF92BF92CF92DF92EF92FF926C
:100CC0000F931F93CF93DF93CDB7DEB76C970FB61B
:100CD000F894DEBF0FBECDBF8C017B01FB0180808D
:100CE0009180A280B380FC01408151816281738137
:100CF000188E1F8A1A8E198E82E291E09F878E8746
:100D00001B861A861D861C869A838983CE010E96C1
:100D10000E943404882311F1B501A401CE0101968B
:100D20000E9434048823D1F0DD24D394BE01645E94
:100D30007F4FCE010E960E949503C82EBE01655EC0
:100D40007F4FCE0101960E9495038D25CC20C9F0DE
:100D5000811104C09C8D8B8D981741F36C960FB652
:100D6000F894DEBF0FBECDBFDF91CF911F910F91E1
:100D7000FF90EF90DF90CF90BF90AF909F908F90BB
:100D80000895882359F3F70115830483E7CFEF9281
:100D9000FF920F931F93CF93DF9300D000D000D02A
:100DA000CDB7DEB77B0129833A834B835C831E82F8
:100DB0001D82FC01008111810115110561F0BE0148
:100DC0006F5F7F4FF801808191810E945806F80182
:100DD00002811381F1CFED81FE8180E0309739F0FF
:100DE0008CE0D70101900D928A95E1F781E026967B
:100DF0000FB6F894DEBF0FBECDBFDF91CF911F912C
:100E00000F91FF90EF900895FC0180819091C000B8
:100E100095FFFCCF8093C6008091C00086FFFCCF79
:100E20008091C00080648093C00081E00895FC013F
:100E30008091C00087FFFCCF9091C0009695969559
:100E400097708091C60080839111F2CF81E0089560
:100E5000FB01108281E00895CB0160917F017091C8
:100E600080010C942F05862F0E94890181E008954E
:100E7000CF93DF93CDB7DEB728970FB6F894DEBFD8
:100E80000FBECDBF80E191E09C838B838AE091E02F
:100E90009A83898360917F0170918001CE010796CA
:100EA0000E942F05882329F160917F0170918001B4
:100EB000CE0105960E94AA048823D9F00E94F6016B
:100EC0009E012D5F3F4F41E050E06F81CE010896BB
:100ED0000E9461024D815E819E012F5F3F4F6F81B5
:100EE000CE0108960E9461028091BC008B7F8093A6
:100EF000BC0028960FB6F894DEBF0FBECDBFDF91C1
:100F0000CF910895EF92FF920F931F93CF93DF93AA
:100F100000D000D000D0CDB7DEB780E191E09A8359
:100F2000898360917F0170918001CE0105960E94B6
:100F30002F05882309F44CC060917F0170918001D6
:100F4000CE0103960E94AA04882309F441C00E949E
:100F5000F6019E012F5F3F4F41E050E06D81CE01D1
:100F600006960E946102EB80FC80E114F10449F1D5
:100F70001D810E945002812F880F81600E945802BB
:100F80008091B9008695869586958830C1F410E0E9
:100F900000E00F5F1F4F8091BC0091E00E151F0510
:100FA00008F090E090FB86F90E942D020E94470213
:100FB0008091BB000E948901E016F10651F70E9462
:100FC00031028091BC008B7F8093BC000E94910015
:100FD00026960FB6F894DEBF0FBECDBFDF91CF913E
:100FE0001F910F91FF90EF9008951F93CF93DF9380
:100FF00000D01F92CDB7DEB780E191E09A8389835C
:101000000E94F60118E09E012F5F3F4F50E040E044
:10101000612FCE0103960E946102882319F0812F6F
:101020000E9489011F5F183771F70E94910080911B
:10103000BC008B7F8093BC000F900F900F90DF91CE
:10104000CF911F9108950F931F93CF93DF93EC01DE
:101050008B01CB010E94AB0C009781F099838883B0
:101060001B830A83688179818A819B810E9406049F
:1010700081E0DF91CF911F910F91089580E0F9CF2A
:10108000CF93DF93EC018A819B810097B1F091951A
:1010900081959109288139818217930770F06881C1
:1010A00079818A819B810E940604888199810E94AE
:1010B000470D198218821B821A82DF91CF91089501
:1010C000CF92DF92EF92FF920F931F93CF93DF9314
:1010D00000D000D0CDB7DEB78C0184E0C82ED12C73
:1010E000D801ED91FC91309771F0E280F380DC82C1
:1010F000CB82FA83E983CE0101960E944008F80171
:10110000F182E082EDCF0F900F900F900F90DF9162
:10111000CF911F910F91FF90EF90DF90CF900895A6
:10112000AF92BF92CF92DF92EF92FF920F931F93F5
:10113000CF93DF93CDB7DEB764970FB6F894DEBFD9
:101140000FBECDBF5C01C986DA86EB86FC860D87B3
:101150001E872F87388B498B5A8B6B8B7C8B1E821B
:101160001D8218861F826CE070E0CE0105960E94F9
:101170002308182F8823F1F09E01275F3F4F4CE092
:1011800050E06D817E818F8198850E944E05ED80B3
:10119000FE801A8219821C821B8264E070E0CE01FC
:1011A00001960E942308182F811116C0CE010596C2
:1011B0000E944008812F64960FB6F894DEBF0FBEE0
:1011C000CDBFDF91CF911F910F91FF90EF90DF90F6
:1011D000CF90BF90AF900895E981FA81F182E082CB
:1011E000D5018D919C911197892B11F4ED93FC936E
:1011F000D50112968D919C91009729F0DC011396F0
:10120000FC93EE931297D5011396FC93EE931297ED
:10121000D1CF0F931F93CF93DF9300D000D0CDB7E2
:10122000DEB78C018CE090E09C838B831A8309836A
:10123000C8010E944008C80104960E944008CE01DF
:1012400001960E9440080F900F900F900F90DF9131
:10125000CF911F910F9108950C9409090F931F933B
:10126000CF93DF938C01FC01C081D181209741F0A5
:10127000888199810E9409090A80DB81C02DF6CFFF
:10128000C801DF91CF911F910F910C946008CB01A1
:101290000C942E094F925F926F927F928F929F9241
:1012A000AF92BF92CF92DF92EF92FF920F931F9374
:1012B000CF93DF93CDB7DEB728970FB6F894DEBF94
:1012C0000FBECDBF7C01CB015A0169011A82198280
:1012D0001C821B821E821D8218861F820E9492051C
:1012E0002B013C01C5010E9492054B015C01611478
:1012F000710409F5F701118210821382128215829E
:10130000148217821682C70128960FB6F894DEBFA2
:101310000FBECDBFDF91CF911F910F91FF90EF9046
:10132000DF90CF90BF90AF909F908F907F906F9005
:101330005F904F900895B301CE0101960E9423085B
:101340008823C1F269817A818B819C81A3019201FA
:101350000E944E05A114B10429F4CE0101960E9409
:101360004008C8CFB501CE0105960E942308882306
:10137000A1F36D817E818F819885A50194010E94E2
:101380004E0549815A816B817C818D819E81AF811F
:10139000B885F70140835183628373838483958387
:1013A000A683B783D186C08613870287ACCF1F92EE
:1013B0000F920FB60F9211242F933F938F939F9309
:1013C000AF93BF9380917B0190917C01A0917D01AF
:1013D000B0917E0130917A0123E0230F2D3758F52B
:1013E0000196A11DB11D20937A0180937B019093FA
:1013F0007C01A0937D01B0937E0180917601909154
:101400007701A0917801B09179010196A11DB11DDC
:101410008093760190937701A0937801B09379013E
:10142000BF91AF919F918F913F912F910F900FBEE0
:101430000F901F90189526E8230F0296A11DB11D4D
:10144000D2CF1F920F920FB60F9211240F900FBEA2
:101450000F901F9018951F920F920FB60F921124A4
:101460000F900FBE0F901F9018951F920F920FB6FE
:101470000F9211240F900FBE0F901F9018951F927E
:101480000F920FB60F9211240F900FBE0F901F9066
:10149000189500000000000000000000000000009F
:1014A0000000089586E391E00E94920588E391E0B0
:1014B0000E949205EFE7F1E08EE291E0958384834C
:1014C00088E291E09187808783E090E09587848728
:1014D00016860895CF93DF93CDB7DEB7C058D109F4
:1014E0000FB6F894DEBF0FBECDBF789484B582608E
:1014F00084BD84B5816084BD85B5826085BD85B5B8
:10150000816085BD80916E00816080936E00109235
:1015100081008091810082608093810080918100B0
:101520008160809381008091800081608093800041
:101530008091B10084608093B1008091B00081609F
:101540008093B00080917A00846080937A008091CB
:101550007A00826080937A0080917A008160809323
:101560007A0080917A00806880937A001092C1009E
:101570000E949C00882331F087E197E090938601D8
:10158000809385010E949C00882331F084E097E0DD
:1015900090938A018093890183E891E09093800180
:1015A00080937F0187E891E090938201809381018D
:1015B0008AE391E00E94D305EF961FAE1EAEEF972F
:1015C000C158DF4F19821882CF57D0408E0103587F
:1015D0001F4F26E136E046E451E064E571E0CE01BC
:1015E000825A9F4F0E944A096F96CFAC6F97A09680
:1015F000DFACA097A196EFACA197A296FFACA29703
:10160000A3960FADA397A4961FADA497A5962FAD53
:10161000A597A6963FADA697A7964FADA797A89674
:101620005FADA897A9966FADA997AA967FADAA9727
:10163000CE0183589F4F0E9490088823B9F18E01F4
:1016400003581F4F27E439E046E551E06BE571E0B0
:10165000CE018E5A9F4F0E944A096396CFAC639782
:101660006496DFAC64976596EFAC65976696FFACC1
:10167000669767960FAD679768961FAD68976996EE
:101680002FAD69976A963FAD6A976B964FAD6B9792
:101690006C965FAD6C976D966FAD6D976E967FADE6
:1016A0006E97CE0183589F4F0E94900810E000E093
:1016B00025EF37E04DE551E062E571E0CE018E9611
:1016C0000E944A09CEA4DFA4E8A8F9A80AA91BA988
:1016D0002CA93DA94EA95FA968AD79ADCE0183586B
:1016E0009F4F0E94900810E000E022E837E042E6B9
:1016F00051E067E671E0CE01CA960E944A09CAAC81
:10170000DBACECACFDAC0EAD1FAD21962FAD21973F
:1017100022963FAD229723964FAD239724965FAD37
:10172000249725966FAD259726967FAD2697CE01F7
:1017300083589F4F0E94900810E000E028E337E0B4
:1017400049E651E06FE671E0CE018A5B9F4F0E944F
:101750004A092796CFAC27972896DFAC2897299679
:10176000EFAC29972A96FFAC2A972B960FAD2B97B3
:101770002C961FAD2C972D962FAD2D972E963FAD05
:101780002E972F964FAD2F9760965FAD609761961D
:101790006FAD619762967FAD6297CE0183589F4F80
:1017A0000E94900884E591E00E9492059B01AC01A3
:1017B0001A8219821C821B821E821D8218861F8239
:1017C0008E010F5F1F4FB801CE0183589F4F0E94BB
:1017D000C706882319F0C8010E942A06AC961FAEDE
:1017E0001EAEAC97AE961FAE1EAEAE97E0961FAE85
:1017F0001EAEE097E2961FAE1EAEE29796E1E92E8E
:1018000091E0F92E2CE1C22E21E0D22EEF968EAD82
:101810009FADEF97892B09F446C080E2A82EB12C2A
:101820001BA61AA61DA61CA6DAA2C9A2B501A8016C
:10183000CE0181960E94DD0380917F01909180010D
:10184000E896FFAEEEAEE897EA969FAF8EAFEA97C6
:10185000EB961FAEEB97EC961FAEEC97CE018A5835
:101860009F4F0E941603BE016A587F4FCE0181969A
:101870000E945F03882351F2CE0183960E94B10338
:10188000AC019B01BE0166597F4FCE0183589F4F2B
:101890000E94C706882309F4B9CFCE0186599F4F0D
:1018A0000E942A06B3CFCE0183589F4F0E942E0973
:1018B000CE0183589F4F0E94600881E791E00E940B
:1018C000D30500E010E001151105E9F30E940000C6
:1018D000FACFA1E21A2EAA1BBB1BFD010DC0AA1F45
:1018E000BB1FEE1FFF1FA217B307E407F50720F089
:1018F000A21BB30BE40BF50B661F771F881F991F04
:101900001A9469F760957095809590959B01AC014C
:10191000BD01CF0108950E949C0CA59F900DB49F1E
:10192000900DA49F800D911D11240895EE0FFF1FAF
:101930000590F491E02D0994A29FB001B39FC001DE
:10194000A39F700D811D1124911DB29F700D811DEB
:101950001124911D08950F931F93CF93DF9382302D
:10196000910510F482E090E0E0919001F0919101F6
:1019700030E020E0B0E0A0E0309799F42115310587
:1019800009F44AC0281B390B24303105D8F58A8167
:101990009B816115710589F1FB0193838283FE01AF
:1019A00011C0408151810281138148175907E0F02D
:1019B0004817590799F4109761F012960C931297F3
:1019C00013961C933296CF01DF91CF911F910F9107
:1019D00008950093900110939101F4CF21153105E2
:1019E00051F04217530738F0A901DB019A01BD01FC
:1019F000DF01F801C1CFEF01F9CF909391018093FE
:101A00009001CDCFFE01E20FF31F819391932250FD
:101A1000310939832883D7CF20918E0130918F01EE
:101A2000232B41F4209102013091030130938F0167
:101A300020938E0120910001309101012115310583
:101A400041F42DB73EB74091040150910501241B8C
:101A5000350BE0918E01F0918F01E217F307A0F4AE
:101A60002E1B3F0B2817390778F0AC014E5F5F4FF4
:101A70002417350748F04E0F5F1F50938F01409396
:101A80008E01819391939FCFF0E0E0E09CCFCF93C4
:101A9000DF930097E9F0FC01329713821282A09144
:101AA0009001B0919101ED0130E020E01097A1F498
:101AB00020813181820F931F20918E0130918F01FF
:101AC0002817390709F061C0F0938F01E0938E0168
:101AD000DF91CF910895EA01CE17DF07E8F54A813B
:101AE0005B819E0141155105B1F7E901FB83EA8352
:101AF00049915991C40FD51FEC17FD0761F48081FE
:101B000091810296840F951FE901998388838281D0
:101B100093819B838A83F0E0E0E012968D919C9103
:101B200013970097B9F52D913C911197CD0102962D
:101B3000820F931F20918E0130918F012817390752
:101B400039F6309751F51092910110929001B093AF
:101B50008F01A0938E01BCCFD383C283408151817A
:101B6000840F951FC817D90761F44E5F5F4F8881B6
:101B70009981480F591F518340838A819B819383A8
:101B800082832115310509F0B0CFF0939101E093E4
:101B900090019ECFFD01DC01C0CF13821282D7CF0E
:041BA000F894FFCFE7
:101BA400000092018000000000002C0700000000EB
:101BB400280700000000EF02000000003A030000C4
:101BC4000000950300000000D80200000000E902B4
:101BD4002D002800290059004E0049324320636F2C
:101BE4006E736F6C65004C69737420636F6D6D6107
:101BF4006E6473003F0045786974005E005363614E
:101C04006E005265616400720057726974650077F2
:061C140000446F6E650044
:00000001FF
