:100000000C9435000C945D000C945D000C945D0024
:100010000C945D000C945D000C945D000C94F2094E
:100020000C945D000C94100A0C94060A0C94FC09C4
:100030000C945D000C945D000C945D000C945D00CC
:100040000C94A8090C945D000C945D000C945D0068
:100050000C945D000C945D000C945D000C945D00AC
:100060000C945D000C945D00230A11241FBECFEF99
:10007000D8E0DEBFCDBF11E0A0E0B1E0E0E9FAE1F9
:1000800002C005900D92A43CB107D9F721E0A4EC81
:10009000B1E001C01D92A03EB207E1F710E0C5E358
:1000A000D0E004C02197FE010E940C0CC433D1079C
:1000B000C9F70E943B0A0C94460D0C940000A091D5
:1000C000CF01B091D001ED91FC9111970190F08199
:1000D000E02D682FCD010994CF93C0E08091DB0122
:1000E000C81740F480E20E945F0080E20E945F0037
:1000F000CF5FF4CFCF9108952091D9013091DA01EB
:100100002115310529F4019751F080E20C945F002C
:100110002130310521F022303105A9F308958AE01C
:10012000F5CF81E090E00E947C0083E090E0909326
:10013000DA018093D90108953F924F925F926F92B6
:100140007F928F929F92AF92BF92CF92DF92EF9267
:10015000FF920F931F93CF93DF93CDB7DEB7A69790
:100160000FB6F894DEBF0FBECDBF8091C1008F7176
:100170008B7F8093C10086E08093C200FE017E9653
:1001800087E0DF011D928A95E9F782E08C8F83E09A
:100190008D8F84E08E8F8CE08CA389E03297DE0116
:1001A000539601900D928A95E1F789E0FE017396CE
:1001B000DE011A9601900D928A95E1F78B858131C7
:1001C00008F09EC09C85913108F09AC0891708F00C
:1001D00097C089E0FE017396DE01119601900D92A1
:1001E0008A95E1F78E010E5F1F4FFE013496FEA344
:1001F000EDA3812C912C54018394412CA8E45A2E18
:10020000A8EE6A2E77247394C12CB2ECDB2EEE2478
:10021000E394F12CD8013D908D01A5019401032CAC
:1002200004C0220F331F441F551F0A94D2F7211513
:1002300031054105510509F45DC0C301B2010E94B9
:10024000DF0BCA01B9016F5F7F4F8F4F9F4F9695AC
:10025000879577956795611571058105910509F475
:1002600049C0660F771F881F991FA70196010E943A
:10027000DF0B2F5F3F4F4F4F5F4F56954795379599
:1002800027952115310541055105A1F1215031096D
:100290003F70932F9F708091C500807F892B809342
:1002A000C5002093C400B3E03B122CC08091C00075
:1002B00082608093C0008091C100806188608093DB
:1002C000C10081E0A6960FB6F894DEBF0FBECDBF89
:1002D000DF91CF911F910F91FF90EF90DF90CF9022
:1002E000BF90AF909F908F907F906F905F904F9056
:1002F0003F900895EDA1FEA10E171F0709F08ACFC8
:1003000080E0E0CFF4E03F12FBCF8091C0008D7F12
:10031000D0CF4F925F926F927F928F929F92AF92C7
:10032000BF92CF92DF92EF92FF920F931F93CF93E2
:10033000DF93C82E82E090E00E947C008091D9017A
:100340009091DA01009729F08D7F019711F40E94B6
:100350006C00C091CF01D091D001D12CF12CE12CB7
:1003600013E084E6882E912CA12CB12C9AE0492E22
:10037000512C612C712CC701B601A50194010E947A
:10038000DF0B022F60E3620FE881F9810190F081B9
:10039000E02DCE010995A02FB0E0A50194010E94A7
:1003A000010CC61AD70AE80AF90AC501B401A3016B
:1003B00092010E94DF0B49015A011150E1F682E0DF
:1003C00090E09093DA018093D901DF91CF911F9152
:1003D0000F91FF90EF90DF90CF90BF90AF909F90E4
:1003E0008F907F906F905F904F900895E9EBF0E0D1
:1003F00080818C7F808388E48093B800ECEBF0E010
:100400008081846080830895089583309105D0F0C1
:100410000297B0E0A0E0BC01CD0124E0660F771F99
:10042000881F991F2A95D1F724E130E040E050E081
:100430000E94DF0B2115310529F0C9010E941A0A1B
:100440000197E1F70895FC018081FB018083089505
:10045000FB012081FC012083089580688093BC000B
:1004600008958091B9008695869586958A3071F0B9
:100470008F3161F0877151F08091BC008F7D806178
:100480000E942D028091BC0084FDFCCF08958091D4
:10049000BC0087FD04C088E790E00C940502089535
:1004A0008091BC0080628F7E0E942D020C944702D6
:1004B0008093BB008091BC008F7C0E942D020C9425
:1004C0004702DF92EF92FF920F931F93CF93DF9338
:1004D0001F92CDB7DEB7D62E8A0179010E94500255
:1004E0008D2D880F0E9458028091B90086958695BF
:1004F00086958330E9F40115110539F1D701ED91A5
:10050000FC910190F081E02DBE016F5F7F4FC7012C
:100510000995882369F089810E9458028091B90069
:10052000869586958695853019F401501109E3CF9B
:1005300010E00E943102812F0F90DF91CF911F9127
:100540000F91FF90EF90DF90089511E0F2CFEF92BE
:10055000FF920F931F93CF93DF931F92CDB7DEB718
:100560007C018B01D701ED91FC910190F081E02D90
:10057000BE016F5F7F4FC7010995882399F0D801AD
:10058000ED91FC910190F081E02D6981C801099500
:100590008111E8CF0F90DF91CF911F910F91FF90C4
:1005A000EF90089581E0F6CFCF93DF931F92CDB700
:1005B000DEB76983DC011296ED91FC91CE010196C4
:1005C00009950F90DF91CF910895DC011296ED917E
:1005D000FC91CB0109940F931F93CF93DF93EC0110
:1005E0008D81882351F09E81DB019C931C821D82AA
:1005F000DF91CF911F910F9108958B018A819B818B
:10060000BE016A5F7F4FDC01ED91FC910190F081AA
:10061000E02D0995882361F39E81F801908391E094
:100620009C83E6CF0F931F93CF93DF931F92CDB799
:10063000DEB78C01BE016F5F7F4FC8010E94EB02E5
:10064000882371F089818032A9F38D3099F3895024
:10065000833080F3F8018481882311F081E0858361
:100660000F90DF91CF911F910F910895CF93DF935A
:100670001F92CDB7DEB7FC0169838681811119C055
:1006800064817581828193816817790769F481E0BB
:1006900086830780F085E02DCE010196099581E0E3
:1006A0000F90DF91CF910895CB01019695838483BC
:1006B000F0CF80E0F5CFCF92DF92EF92FF920F93D1
:1006C0001F93CF93DF931F92CDB7DEB76C018B01E1
:1006D000F12CBE016F5F7F4FC8010E94EB02E82E34
:1006E0008823A1F06981603259F06D3049F087EFBD
:1006F000860F833028F0C6010E943603FE2CE9CF16
:10070000F8018481882311F081E085838F2D0F907B
:10071000DF91CF911F910F91FF90EF90DF90CF90DD
:100720000895FC01CB012681211115C064817581DA
:10073000228133816217730741F421E02683078009
:10074000F085E02D099581E008959B012F5F3F4FD3
:1007500035832483F4CF80E00895FC0147815085E0
:10076000218532858481811121C082819381211567
:100770003105E1F066277727621B730B6417750755
:10078000A8F08417950790F0B901640F751F6150A8
:1007900071096817790750F09C012F5F3F4F241BA8
:1007A000350B4115510511F021503109BA01C9012C
:1007B0000895FC01158214821382128221E026839F
:1007C00061157105E9F022273327261B370B241703
:1007D0003507B0F0558344839B01240F351F21500A
:1007E0003109338322831682418752876387748756
:1007F00083E292E09087878381E02115394008F0F9
:1008000080E00895CF93DF93CDB7DEB72F970FB673
:10081000F894DEBF0FBECDBFAB01BC0188E291E012
:100820009F878E871B861A861D861C8684E391E02F
:100830009A838983CE0101960E94D903882339F0D7
:10084000BE016F5F7F4FCE010E960E94A7022F96CA
:100850000FB6F894DEBF0FBECDBFDF91CF910895E4
:10086000FC01158214821382128221E02683611515
:100870007105E9F022273327261B370B241735078C
:10088000B0F0558344839B01240F351F215031095B
:10089000338322831682418752876387748788E275
:1008A00092E09087878381E02115394008F080E04D
:1008B0000895CF93DF93CDB7DEB72D970FB6F89499
:1008C000DEBF0FBECDBFAB01BC011B861A861D86E5
:1008D0001C868AE391E09A838983CE0101960E9467
:1008E0003004882341F06091CF017091D001CE0196
:1008F00001960E94A7022D960FB6F894DEBF0FBE98
:10090000CDBFDF91CF910895CF92DF92EF92FF920A
:100910006B017C0190E080E00E947C008091D90115
:100920009091DA01009729F08D7F019711F40E94D0
:100930006C00C701B6010E9459041092DA011092AE
:10094000D901FF90EF90DF90CF900895CF92DF9282
:10095000EF92FF920F931F93CF93DF93CDB7DEB744
:10096000A6970FB6F894DEBF0FBECDBF6C018B010A
:100970001B861A861D861C8684E391E09A838983F0
:10098000188E1F8A1A8E198E8AE391E09F878E87B0
:10099000AE014E5D5F4F65E070E0CE0101960E94B2
:1009A000D9038EE291E09C8F8B8F1E8F0D8F1F8E4F
:1009B00018A2CE014B960E941203BE01655E7F4FC6
:1009C000CE0101960E945B03F82E882391F1CE019F
:1009D00003960E94AD03AB01BC01CE010E960E94AE
:1009E000300410E000E08AE0E82EBE01655E7F4F33
:1009F000CE010E960E9491038823C1F08B8D805307
:100A00008A3038F50A3999E1190718F5E09E900106
:100A1000E19E300D1124082F10E0C80180959095BB
:100A200082179307B0F0020F131FDFCFF601118377
:100A300000838F2DA6960FB6F894DEBF0FBECDBFF4
:100A4000DF91CF911F910F91FF90EF90DF90CF90AA
:100A50000895F12CEECF0F931F93CF93DF9300D027
:100A6000CDB7DEB78C01CE0101960E94A604882383
:100A700041F029813A812F3F310509F048F4F8010E
:100A800020830F900F90DF91CF911F910F910895C8
:100A900080E0F7CFCF92DF92EF92FF92CF93DF9378
:100AA000CDB7DEB76A970FB6F894DEBF0FBECDBFE5
:100AB0006B017C01BA01A9011B861A861D861C8662
:100AC0008AE391E09A838983188E1F8A1A8E198E81
:100AD00084E391E09F878E87CE0101960E943004C7
:100AE000882379F0B701A601CE010E960E94D903A2
:100AF000882339F0BE01625F7F4FCE0101960E94CC
:100B0000A7026A960FB6F894DEBF0FBECDBFDF9185
:100B1000CF91FF90EF90DF90CF900895EF92FF92EA
:100B20000F931F93CF93DF93CDB7DEB72E970FB6FA
:100B3000F894DEBF0FBECDBF7C011B861A861D86D2
:100B40001C868AE391E09A838983A70180E099E07B
:100B5000BC016E197F09CE0101960E94300410E09D
:100B600000E0BE01625F7F4FCE0101960E949103BB
:100B7000882331F08E85882319F00F5F1F4FF1CF46
:100B8000B701C8012E960FB6F894DEBF0FBECDBFD9
:100B9000DF91CF911F910F91FF90EF900895CF9229
:100BA000DF92EF92FF920E948E056B017C0181E043
:100BB00090E00E947C008091D9019091DA01049725
:100BC00010F40E946C00C701B6010E9459048AE02B
:100BD0000E945F0083E090E09093DA018093D90156
:100BE000FF90EF90DF90CF900895FC01808190916D
:100BF000C00095FFFCCF8093C6008091C00086FFA7
:100C0000FCCF8091C00080648093C00081E0089593
:100C1000FC018091C00087FFFCCF9091C0009695A9
:100C2000969597708091C60080839111F2CF81E0F4
:100C30000895FB01108281E0089580E00895CB01C2
:100C40006091CD017091CE010C942B05862F0E94EE
:100C5000890181E00895CF93DF93EC0188E491E06E
:100C60000E948E050E948404688179818A819B811B
:100C70000E9484040E9491008091DB01823319F06C
:100C80008F5F8093DB01E885F985309719F08A85BD
:100C90009B8509958091DB01882319F08150809311
:100CA000DB018AE491E0DF91CF910C94CF058F9224
:100CB0009F92AF92BF92CF92DF92EF92FF920F93EB
:100CC0001F93CF93DF93CDB7DEB76C970FB6F89431
:100CD000DEBF0FBECDBF8C017B01FB018080918008
:100CE000A280B380FC014081518162817381188EA2
:100CF0001F8A1A8E198E8AE391E09F878E871B8642
:100D00001A861D861C869A838983CE010E960E94C0
:100D10003004882311F1B501A401CE0101960E948F
:100D200030048823D1F0DD24D394BE01645E7F4F6C
:100D3000CE010E960E949103C82EBE01655E7F4FC4
:100D4000CE0101960E9491038D25CC20C9F081111E
:100D500004C09C8D8B8D981741F36C960FB6F89458
:100D6000DEBF0FBECDBFDF91CF911F910F91FF90DE
:100D7000EF90DF90CF90BF90AF909F908F900895AD
:100D8000882359F3F70115830483E7CFEF92FF928D
:100D90000F931F93CF93DF9300D000D000D0CDB737
:100DA000DEB77B0129833A834B835C831E821D82DD
:100DB000FC01008111810115110561F0BE016F5F19
:100DC0007F4FF801808191810E945706F8010281CE
:100DD0001381F1CFED81FE8180E0309739F08CE016
:100DE000D70101900D928A95E1F781E026960FB622
:100DF000F894DEBF0FBECDBFDF91CF911F910F9151
:100E0000FF90EF900895CF93DF93EC016881798193
:100E10008A819B810E9484048E819F81892B61F04D
:100E20008CE491E00E948E050E9484046C817D8197
:100E30008E819F810E948404DF91CF910C94910058
:100E4000CF93DF93FC01C081D181209751F070E0F6
:100E500060E0888199810E9403070A80DB81C02DB0
:100E6000F4CFDF91CF910895CF93DF9300D000D0DE
:100E700000D0CDB7DEB782E291E09A83898360919A
:100E8000CD017091CE01CE0105960E942B058823DD
:100E9000D9F06091CD017091CE01CE0103960E94F0
:100EA000A604882389F00E94F6014B815C819E0193
:100EB0002F5F3F4F6D81CE0106960E9461028091A7
:100EC000BC008B7F8093BC0026960FB6F894DEBFE3
:100ED0000FBECDBFDF91CF910895FF920F931F9367
:100EE000CF93DF9300D01F92CDB7DEB76091CD01D5
:100EF0007091CE01CE0103960E942B05882309F440
:100F00003DC06091CD017091CE01CE0101960E944D
:100F1000A604882399F10E94F60109811A8101151E
:100F2000110529F1FB800E9450028F2D880F8160EE
:100F30000E9458028091B9008695869586958830E2
:100F4000A1F48091BC0091E00130110509F490E01A
:100F500090FB86F90E942D020E9447028091BB00FF
:100F60000E9489010150110961F70E9431028091AC
:100F7000BC008B7F8093BC000E9491000F900F906B
:100F80000F90DF91CF911F910F91FF9008951F93C4
:100F9000CF93DF9300D01F92CDB7DEB78CE191E005
:100FA0009A8389830E94F60118E09E012F5F3F4FCC
:100FB00050E040E0612FCE0103960E946102882339
:100FC00019F0812F0E9489011F5F183771F70E9465
:100FD00091008091BC008B7F8093BC000F900F909C
:100FE0000F90DF91CF911F9108950F931F93CF938F
:100FF000DF93EC018B01CB010E94210C009781F063
:10100000998388831B830A83688179818A819B8184
:101010000E94020481E0DF91CF911F910F9108950A
:1010200080E0F9CFCF93DF93EC018A819B81009719
:10103000B1F09195819591092881398182179307A3
:1010400070F0688179818A819B810E940204888185
:1010500099810E94BD0C198218821B821A82DF912D
:10106000CF910895CF92DF92EF92FF920F931F934B
:10107000CF93DF9300D000D0CDB7DEB78C0184E0F2
:10108000C82ED12CD801ED91FC91309771F0E280FF
:10109000F380DC82CB82FA83E983CE0101960E9441
:1010A0001208F801F182E082EDCF0F900F900F90BF
:1010B0000F90DF91CF911F910F91FF90EF90DF90F4
:1010C000CF900895AF92BF92CF92DF92EF92FF92AE
:1010D0000F931F93CF93DF93CDB7DEB764970FB60F
:1010E000F894DEBF0FBECDBF5C01C986DA86EB8601
:1010F000FC860D871E872F87388B498B5A8B6B8B0D
:101100007C8B1E821D8218861F826CE070E0CE01EF
:1011100005960E94F507182F8823F1F09E01275F9E
:101120003F4F4CE050E06D817E818F8198850E9419
:101130004A05ED80FE801A8219821C821B8264E0BF
:1011400070E0CE0101960E94F507182F811116C09C
:10115000CE0105960E941208812F64960FB6F8946E
:10116000DEBF0FBECDBFDF91CF911F910F91FF90DA
:10117000EF90DF90CF90BF90AF900895E981FA8112
:10118000F182E082D5018D919C911197892B11F408
:10119000ED93FC93D50112968D919C91009729F0C7
:1011A000DC011396FC93EE931297D5011396FC93F2
:1011B000EE931297D1CF0F931F93CF93DF9300D06D
:1011C00000D0CDB7DEB78C018CE090E09C838B83A0
:1011D0001A830983C8010E941208C80104960E945C
:1011E0001208CE0101960E9412080F900F900F90E6
:1011F0000F90DF91CF911F910F9108950C94DB0810
:101200000F931F93CF93DF938C01FC01C081D18199
:10121000209741F0888199810E94DB080A80DB8158
:10122000C02DF6CFC801DF91CF911F910F910C9483
:1012300032080C9400094F925F926F927F928F92C6
:101240009F92AF92BF92CF92DF92EF92FF920F9355
:101250001F93CF93DF93CDB7DEB728970FB6F894DF
:10126000DEBF0FBECDBF7C01CB015A0169011A82DE
:1012700019821C821B821E821D8218861F820E9478
:101280008E052B013C01C5010E948E054B015C01BE
:101290006114710409F5F701118210821382128220
:1012A0001582148217821682C70128960FB6F89409
:1012B000DEBF0FBECDBFDF91CF911F910F91FF9089
:1012C000EF90DF90CF90BF90AF909F908F907F90E6
:1012D0006F905F904F900895B301CE0101960E94E8
:1012E000F5078823C1F269817A818B819C81A301F2
:1012F00092010E944A05A114B10429F4CE0101967D
:101300000E941208C8CFB501CE0105960E94F507CC
:101310008823A1F36D817E818F819885A501940139
:101320000E944A0549815A816B817C818D819E8111
:10133000AF81B885F70140835183628373838483CF
:101340009583A683B783D186C08613870287ACCFE7
:101350001F920F920FB60F9211242F933F938F93EA
:101360009F93AF93BF938091C9019091CA01A091BF
:10137000CB01B091CC013091C80123E0230F2D3770
:1013800058F50196A11DB11D2093C8018093C90194
:101390009093CA01A093CB01B093CC018091C4017A
:1013A0009091C501A091C601B091C7010196A11D00
:1013B000B11D8093C4019093C501A093C601B09361
:1013C000C701BF91AF919F918F913F912F910F9046
:1013D0000FBE0F901F90189526E8230F0296A11DAF
:1013E000B11DD2CF1F920F920FB60F9211240F9002
:1013F0000FBE0F901F9018951F920F920FB60F926D
:1014000011240F900FBE0F901F9018951F920F92EE
:101410000FB60F9211240F900FBE0F901F901895CA
:101420001F920F920FB60F9211240F900FBE0F90C4
:101430001F90189500000000000000000000000050
:101440000000000008958EE491E00E948E0580E582
:1014500091E00E948E05EDECF1E086E491E0958349
:10146000848380E491E09187808783E090E0958792
:10147000848716860895CF93DF93CDB7DEB7C8561D
:10148000D1090FB6F894DEBF0FBECDBF789484B5F6
:10149000826084BD84B5816084BD85B5826085BD70
:1014A00085B5816085BD80916E00816080936E00FE
:1014B00010928100809181008260809381008091F0
:1014C00081008160809381008091800081608093A1
:1014D00080008091B10084608093B1008091B00061
:1014E00081608093B00080917A00846080937A005C
:1014F00080917A00826080937A0080917A00816086
:1015000080937A0080917A00806880937A001092AC
:10151000C1000E949C00882331F088E096E09093FF
:10152000D4018093D3010E949C00882331F085EF81
:1015300095E09093D8018093D70181ED91E090934D
:10154000CE018093CD0185ED91E09093D001809301
:10155000CF0182E591E00E94CF05A7961FAE1EAE97
:10156000A797A9961FAE1EAEA9978E010B591F4FC4
:1015700020E237E04EE551E06CE671E0CE018A5B97
:101580009F4F0E941B092796CFAC27972896DFAC68
:1015900028972996EFAC29972A96FFAC2A972B9685
:1015A0000FAD2B972C961FAD2C972D962FAD2D9709
:1015B0002E963FAD2E972F964FAD2F9760965FAD2D
:1015C000609761966FAD619762967FAD6297CE012D
:1015D0008B599F4F0E946208882351F18E010B594D
:1015E0001F4F29E139E04EE651E063E771E0CE019B
:1015F000CA960E941B09CAACDBACECACFDAC0EADCC
:101600001FAD21962FAD219722963FAD22972396AD
:101610004FAD239724965FAD249725966FAD259700
:1016200026967FAD2697CE018B599F4F0E94620868
:1016300082E1E6E0F1E09E012F5F3F4F4901D901D1
:1016400001900D928A95E1F759013E0133E1630E55
:10165000711CF50122813381448155816081718142
:1016600010E000E0CE018E960E941B09CEA4DFA4FC
:10167000E8A8F9A80AA91BA92CA93DA94EA95FA908
:1016800068AD79ADCE018B599F4F0E946208F6E09C
:10169000AF0EB11CA614B704E1F68CE691E00E94EF
:1016A0008E059B01AC011A8219821C821B821E824C
:1016B0001D8218861F82B401CE018B599F4F0E9454
:1016C000C606882319F0C4010E942B0664961FAE3B
:1016D0001EAE649766961FAE1EAE669768961FAEE6
:1016E0001EAE68976A961FAE1EAE6A970EE211E0B4
:1016F00094E3A92E91E0B92EA7968EAD9FADA79742
:10170000892B09F446C080E2482E512C1BA61AA64C
:101710001DA61CA6BAA2A9A2B201A401CE0181965F
:101720000E94D9038091CD019091CE01A0961FAF68
:101730000EAFA097A2969FAF8EAFA297A3961FAEB3
:10174000A397A4961FAEA497CE01825A9F4F0E94E2
:101750001203BE01625A7F4FCE0181960E945B0345
:10176000882351F2CE0183960E94AD03AC019B0108
:10177000BE016E5A7F4FCE018B599F4F0E94C60605
:10178000882309F4B9CFCE018E5A9F4F0E942B06B1
:10179000B3CFCE018B599F4F0E940009CE018B59C8
:1017A0009F4F0E94320885E791E00E94CF0500E03C
:1017B00010E001151105E9F30E940000FACFA1E243
:1017C0001A2EAA1BBB1BFD010DC0AA1FBB1FEE1FBB
:1017D000FF1FA217B307E407F50720F0A21BB30B06
:1017E000E40BF50B661F771F881F991F1A9469F782
:1017F00060957095809590959B01AC01BD01CF01DE
:1018000008950E94120CA59F900DB49F900DA49F67
:10181000800D911D11240895EE0FFF1F0590F49186
:10182000E02D0994A29FB001B39FC001A39F700D4A
:10183000811D1124911DB29F700D811D1124911DD8
:1018400008950F931F93CF93DF938230910510F487
:1018500082E090E0E091DE01F091DF0130E020E0F5
:10186000B0E0A0E0309799F42115310509F44AC0A1
:10187000281B390B24303105D8F58A819B816115ED
:10188000710589F1FB0193838283FE0111C04081C0
:1018900051810281138148175907E0F04817590711
:1018A00099F4109761F012960C93129713961C936B
:1018B0003296CF01DF91CF911F910F910895009340
:1018C000DE011093DF01F4CF2115310551F04217ED
:1018D000530738F0A901DB019A01BD01DF01F801CE
:1018E000C1CFEF01F9CF9093DF018093DE01CDCF1F
:1018F000FE01E20FF31F8193919322503109398346
:101900002883D7CF2091DC013091DD01232B41F4D6
:1019100020910201309103013093DD012093DC011D
:1019200020910001309101012115310541F42DB7BD
:101930003EB74091040150910501241B350BE09105
:10194000DC01F091DD01E217F307A0F42E1B3F0B41
:101950002817390778F0AC014E5F5F4F2417350721
:1019600048F04E0F5F1F5093DD014093DC018193DF
:1019700091939FCFF0E0E0E09CCFCF93DF9300976F
:10198000E9F0FC01329713821282A091DE01B0913E
:10199000DF01ED0130E020E01097A1F420813181DA
:1019A000820F931F2091DC013091DD012817390748
:1019B00009F061C0F093DD01E093DC01DF91CF918C
:1019C0000895EA01CE17DF07E8F54A815B819E01A1
:1019D00041155105B1F7E901FB83EA83499159911A
:1019E000C40FD51FEC17FD0761F480819181029629
:1019F000840F951FE90199838883828193819B835A
:101A00008A83F0E0E0E012968D919C911397009705
:101A1000B9F52D913C911197CD010296820F931F3C
:101A20002091DC013091DD012817390739F6309714
:101A300051F51092DF011092DE01B093DD01A09309
:101A4000DC01BCCFD383C28340815181840F951FB9
:101A5000C817D90761F44E5F5F4F88819981480F9D
:101A6000591F518340838A819B81938382832115EF
:101A7000310509F0B0CFF093DF01E093DE019ECF96
:101A8000FD01DC01C0CF13821282D7CFF894FFCFC3
:101A90000000E00180006A01C7077A017F016D073D
:101AA00081019C0134079E01000000001D0600001A
:101AB00000001F0600000000190600000000EB02F5
:101AC0000000000036030000000091030000000049
:101AD000D40200000000E502280029002D00590072
:101AE0004E0049324320636F6E736F6C65004C6922
:101AF000737420636F6D6D616E6473003F00457891
:101B00006974005E00446F6E65005363616E00721D
:101B10000052656164203C44657669636549643EB2
:101B2000203C4E756D42797465733E0077005772A4
:101B3000697465203C44657669636549643E203C70
:101B40004E756D42797465733E203C4279746573BD
:041B50002B3E000028
:00000001FF
